# key: height_int, value: block dictionary (verbose=True)
MOCK_BLOCKS = {
    3982079: {
        "author": "0xf38de36b8a2e9d8eabce4991b66d9412b843f26a",
        "baseFeePerGas": "0xe8d4a51000",
        "difficulty": "0x0",
        "extraData": "0x",
        "gasLimit": "0x2faf080",
        "gasUsed": "0x0",
        "hash": "0x8ce025c828055a86c331096d32c790b3539376dd492f016fd2d7346d0041852f",
        "logsBloom": "0x00000000000000000000000000000000000000000000000000000000000000000000000000000000000000000000000000000000000000000000000000000000000000000000000000000000000000000000000000000000000000000000000000000000000000000000000000000000000000000000000000000000000000000000000000000000000000000000000000000000000000000000000000000000000000000000000000000000000000000000000000000000000000000000000000000000000000000000000000000000000000000000000000000000000000000000000000000000000000000000000000000000000000000000000000000000",
        "miner": "0xf38de36b8a2e9d8eabce4991b66d9412b843f26a",
        "nonce": "0x0000000000000000",
        "number": "0x3cc2ff",
        "parentHash": "0xcf32e7663904e084724d7b0ea41d1816c51ac842e7850d7126eabfb6161bc3fa",
        "receiptsRoot": "0x56e81f171bcc55a6ff8345e692c0f86e5b48e01b996cadc001622fb5e363b421",
        "sha3Uncles": "0x1dcc4de8dec75d7aab85b567b6ccd41ad312451b948a7413f0a142fd40d49347",
        "size": "0x202",
        "stateRoot": "0xa74313ea4fc0e87f68448e4309e3b28d608a53e051beba79704c971ffcf84285",
        "timestamp": "0x63fda028",
        "totalDifficulty": "0x0",
        "transactions": [],
        "transactionsRoot": "0x56e81f171bcc55a6ff8345e692c0f86e5b48e01b996cadc001622fb5e363b421",
        "uncles": []
    },
    3982080: {
        "author": "0x075c203a2f74469943b7f26d9eee59f8811fc22b",
        "baseFeePerGas": "0xe8d4a51000",
        "difficulty": "0x0",
        "extraData": "0x",
        "gasLimit": "0x2faf080",
        "gasUsed": "0x0",
        "hash": "0xb7cd142f7fb1815102dae51f783fa372435f4034dac553ed60dac2e127096ba2",
        "logsBloom": "0x00000000000000000000000000000000000000000000000000000000000000000000000000000000000000000000000000000000000000000000000000000000000000000000000000000000000000000000000000000000000000000000000000000000000000000000000000000000000000000000000000000000000000000000000000000000000000000000000000000000000000000000000000000000000000000000000000000000000000000000000000000000000000000000000000000000000000000000000000000000000000000000000000000000000000000000000000000000000000000000000000000000000000000000000000000000",
        "miner": "0x075c203a2f74469943b7f26d9eee59f8811fc22b",
        "nonce": "0x0000000000000000",
        "number": "0x3cc300",
        "parentHash": "0x8ce025c828055a86c331096d32c790b3539376dd492f016fd2d7346d0041852f",
        "receiptsRoot": "0x56e81f171bcc55a6ff8345e692c0f86e5b48e01b996cadc001622fb5e363b421",
        "sha3Uncles": "0x1dcc4de8dec75d7aab85b567b6ccd41ad312451b948a7413f0a142fd40d49347",
        "size": "0x202",
        "stateRoot": "0x6ef933689e719aa271f3d765ed7a08bcef8df74da3b5e138ef5cdfde941ad9d8",
        "timestamp": "0x63fda02b",
        "totalDifficulty": "0x0",
        "transactions": [],
        "transactionsRoot": "0x56e81f171bcc55a6ff8345e692c0f86e5b48e01b996cadc001622fb5e363b421",
        "uncles": []
    },
    3982081: {
        "author": "0x45a96aca1cd759306b05b05b40b082254e77699b",
        "baseFeePerGas": "0xe8d4a51000",
        "difficulty": "0x0",
        "extraData": "0x",
        "gasLimit": "0x2faf080",
        "gasUsed": "0x0",
        "hash": "0xdffd48bf5937bc670591b25ea11804f6aa46ae553d595ebe25c50fdfaff6d3ea",
        "logsBloom": "0x00000000000000000000000000000000000000000000000000000000000000000000000000000000000000000000000000000000000000000000000000000000000000000000000000000000000000000000000000000000000000000000000000000000000000000000000000000000000000000000000000000000000000000000000000000000000000000000000000000000000000000000000000000000000000000000000000000000000000000000000000000000000000000000000000000000000000000000000000000000000000000000000000000000000000000000000000000000000000000000000000000000000000000000000000000000",
        "miner": "0x45a96aca1cd759306b05b05b40b082254e77699b",
        "nonce": "0x0000000000000000",
        "number": "0x3cc301",
        "parentHash": "0xb7cd142f7fb1815102dae51f783fa372435f4034dac553ed60dac2e127096ba2",
        "receiptsRoot": "0x56e81f171bcc55a6ff8345e692c0f86e5b48e01b996cadc001622fb5e363b421",
        "sha3Uncles": "0x1dcc4de8dec75d7aab85b567b6ccd41ad312451b948a7413f0a142fd40d49347",
        "size": "0x202",
        "stateRoot": "0xa9a17bfea0cab63d541bf08ac864b843692b7e20ae1730053818f96cf1a3be79",
        "timestamp": "0x63fda02e",
        "totalDifficulty": "0x0",
        "transactions": [],
        "transactionsRoot": "0x56e81f171bcc55a6ff8345e692c0f86e5b48e01b996cadc001622fb5e363b421",
        "uncles": []
    },
    3982082: {
        "author": "0xd793310126583f3a2d7949f2446ddaeb74512676",
        "baseFeePerGas": "0xe8d4a51000",
        "difficulty": "0x0",
        "extraData": "0x",
        "gasLimit": "0x2faf080",
        "gasUsed": "0x0",
        "hash": "0x05df0ca1c427a0fe453426d2d45e762a332da13bbfcadecacfdf38a3682df722",
        "logsBloom": "0x00000000000000000000000000000000000000000000000000000000000000000000000000000000000000000000000000000000000000000000000000000000000000000000000000000000000000000000000000000000000000000000000000000000000000000000000000000000000000000000000000000000000000000000000000000000000000000000000000000000000000000000000000000000000000000000000000000000000000000000000000000000000000000000000000000000000000000000000000000000000000000000000000000000000000000000000000000000000000000000000000000000000000000000000000000000",
        "miner": "0xd793310126583f3a2d7949f2446ddaeb74512676",
        "nonce": "0x0000000000000000",
        "number": "0x3cc302",
        "parentHash": "0xdffd48bf5937bc670591b25ea11804f6aa46ae553d595ebe25c50fdfaff6d3ea",
        "receiptsRoot": "0x56e81f171bcc55a6ff8345e692c0f86e5b48e01b996cadc001622fb5e363b421",
        "sha3Uncles": "0x1dcc4de8dec75d7aab85b567b6ccd41ad312451b948a7413f0a142fd40d49347",
        "size": "0x202",
        "stateRoot": "0x57d188d7b8c05aedd5eb5642a3d83449b307375d07e7ddb74b903e4b1b046e05",
        "timestamp": "0x63fda031",
        "totalDifficulty": "0x0",
        "transactions": [],
        "transactionsRoot": "0x56e81f171bcc55a6ff8345e692c0f86e5b48e01b996cadc001622fb5e363b421",
        "uncles": []
    },
    3982083: {
        "author": "0xef3f6f7761d74adadfcef618608a28e2be330f9d",
        "baseFeePerGas": "0xe8d4a51000",
        "difficulty": "0x0",
        "extraData": "0x",
        "gasLimit": "0x2faf080",
        "gasUsed": "0x0",
        "hash": "0x93c704ad79c824d389295d83a12f4182c67ca63803608a6a2fdd5e8444700e7e",
        "logsBloom": "0x00000000000000000000000000000000000000000000000000000000000000000000000000000000000000000000000000000000000000000000000000000000000000000000000000000000000000000000000000000000000000000000000000000000000000000000000000000000000000000000000000000000000000000000000000000000000000000000000000000000000000000000000000000000000000000000000000000000000000000000000000000000000000000000000000000000000000000000000000000000000000000000000000000000000000000000000000000000000000000000000000000000000000000000000000000000",
        "miner": "0xef3f6f7761d74adadfcef618608a28e2be330f9d",
        "nonce": "0x0000000000000000",
        "number": "0x3cc303",
        "parentHash": "0x05df0ca1c427a0fe453426d2d45e762a332da13bbfcadecacfdf38a3682df722",
        "receiptsRoot": "0x56e81f171bcc55a6ff8345e692c0f86e5b48e01b996cadc001622fb5e363b421",
        "sha3Uncles": "0x1dcc4de8dec75d7aab85b567b6ccd41ad312451b948a7413f0a142fd40d49347",
        "size": "0x202",
        "stateRoot": "0xdcbcc8f1e065fd03e9be7ae1c0ab80fe2c133ed6aad58b231991acf07f0187e1",
        "timestamp": "0x63fda034",
        "totalDifficulty": "0x0",
        "transactions": [],
        "transactionsRoot": "0x56e81f171bcc55a6ff8345e692c0f86e5b48e01b996cadc001622fb5e363b421",
        "uncles": []
    },
    3982084: {
        "author": "0xf38de36b8a2e9d8eabce4991b66d9412b843f26a",
        "baseFeePerGas": "0xe8d4a51000",
        "difficulty": "0x0",
        "extraData": "0x",
        "gasLimit": "0x2faf080",
        "gasUsed": "0x0",
        "hash": "0x1b6b0e3e6d4b66138a2e43287892aa31cfadbf78681d3462077c285031308dcf",
        "logsBloom": "0x00000000000000000000000000000000000000000000000000000000000000000000000000000000000000000000000000000000000000000000000000000000000000000000000000000000000000000000000000000000000000000000000000000000000000000000000000000000000000000000000000000000000000000000000000000000000000000000000000000000000000000000000000000000000000000000000000000000000000000000000000000000000000000000000000000000000000000000000000000000000000000000000000000000000000000000000000000000000000000000000000000000000000000000000000000000",
        "miner": "0xf38de36b8a2e9d8eabce4991b66d9412b843f26a",
        "nonce": "0x0000000000000000",
        "number": "0x3cc304",
        "parentHash": "0x93c704ad79c824d389295d83a12f4182c67ca63803608a6a2fdd5e8444700e7e",
        "receiptsRoot": "0x56e81f171bcc55a6ff8345e692c0f86e5b48e01b996cadc001622fb5e363b421",
        "sha3Uncles": "0x1dcc4de8dec75d7aab85b567b6ccd41ad312451b948a7413f0a142fd40d49347",
        "size": "0x202",
        "stateRoot": "0xc62a77486910b3a5adf305fe5b654b03ad21148631459c5f8398eaf9ae040297",
        "timestamp": "0x63fda037",
        "totalDifficulty": "0x0",
        "transactions": [],
        "transactionsRoot": "0x56e81f171bcc55a6ff8345e692c0f86e5b48e01b996cadc001622fb5e363b421",
        "uncles": []
    },
    3982085: {
        "author": "0x075c203a2f74469943b7f26d9eee59f8811fc22b",
        "baseFeePerGas": "0xe8d4a51000",
        "difficulty": "0x0",
        "extraData": "0x",
        "gasLimit": "0x2faf080",
        "gasUsed": "0x94396",
        "hash": "0xb36bd0c8904264bb53db76fa9f6d14d96a1509c2bf6606bd9a90b60fdc346570",
        "logsBloom": "0x00000000000000000004000000000000000000000000000000000000000000000000000000000000000000040000000000000000000000000000000000000000000000000000000000000000000000000000000200000000000000000000000100000000000000000800000000000000000000000000000000000000000000000000000000000000000000000000000000000000000000000000000800080000000000000000040004000000000000000000000000000000000000000000040000000000000000000000000000000000000000000000000000000000000000000000000001000000000000000000000000080000000000000000000000000000",
        "miner": "0x075c203a2f74469943b7f26d9eee59f8811fc22b",
        "nonce": "0x0000000000000000",
        "number": "0x3cc305",
        "parentHash": "0x1b6b0e3e6d4b66138a2e43287892aa31cfadbf78681d3462077c285031308dcf",
        "receiptsRoot": "0xc947a1f05210fc2e392fa1d08239f3e5b4ba49fa69ae97bf579dd8c8295670b0",
        "sha3Uncles": "0x1dcc4de8dec75d7aab85b567b6ccd41ad312451b948a7413f0a142fd40d49347",
        "size": "0x279",
        "stateRoot": "0x73b565571702ba99ece92c3b3b8b9c0362f373607a3f2eaf83c031d44ee85b2b",
        "timestamp": "0x63fda03a",
        "totalDifficulty": "0x0",
        "transactions": [
            {
                "accessList": None,
                "blockHash": "0xb36bd0c8904264bb53db76fa9f6d14d96a1509c2bf6606bd9a90b60fdc346570",
                "blockNumber": "0x3cc305",
                "chainId": "0xbfc0",
                "creates": None,
                "from": "0x71480ef89538d182241039e01808f639bf0416be",
                "gas": "0xabd7a",
                "gasPrice": "0x1176592e000",
                "hash": "0xa790100f2e18c86f24fc1eb37b4c405adeff3c5c6664e8802df8b17ca35d3ec3",
                "input": "0x23030665",
                "nonce": "0x1487",
                "publicKey": "0x9cfdc4aaf0fbf69e06a018b01fe02b944f2836c12bba303e36e36b462a642b7315b062bcbc8a78276f16903302562d05648bf171270647076505efb2907fec23",
                "r": "0xef95514bbf1d9ab0b1cf694eeb2e132cd07d3ae548f8ae05efb2befc1f3853c1",
                "raw": "0xf86f8214878601176592e000830abd7a94f79141c9a6382bbdbffdcf0f64ce9322daeb213a80842303066583017fa4a0ef95514bbf1d9ab0b1cf694eeb2e132cd07d3ae548f8ae05efb2befc1f3853c1a054ffc90801c9bdf92bdc74a5dc7884c4870413e0779f51a45bc1e8dfa15370b9",
                "s": "0x54ffc90801c9bdf92bdc74a5dc7884c4870413e0779f51a45bc1e8dfa15370b9",
                "standardV": "0x1",
                "to": "0xf79141c9a6382bbdbffdcf0f64ce9322daeb213a",
                "transactionIndex": "0x0",
                "type": "0x0",
                "v": "0x17fa4",
                "value": "0x0"
            }
        ],
        "transactionsRoot": "0x0580ed621ef571d07186cc2aaeeeca6e7f6ab7e8b8508403ceb0e8b5b815f837",
        "uncles": []
    }
}

TEST_RECEIPT = {
    "transactionHash": "0xa790100f2e18c86f24fc1eb37b4c405adeff3c5c6664e8802df8b17ca35d3ec3",
    "transactionIndex": "0x0",
    "blockHash": "0xb36bd0c8904264bb53db76fa9f6d14d96a1509c2bf6606bd9a90b60fdc346570",
    "from": "0x71480ef89538d182241039e01808f639bf0416be",
    "to": "0xf79141c9a6382bbdbffdcf0f64ce9322daeb213a",
    "blockNumber": "0x3cc305",
    "cumulativeGasUsed": "0x94396",
    "gasUsed": "0x94396",
    "contractAddress": None,
    "logs": [
        {
            "address": "0xe6b15f8ccf02083e7d86857db621f90b65186fee",
            "topics": [
                "0x20a464b622e7cd0fdfd3281548ab59e5f670b3394275caf7c617b6352d2b1b94"
            ],
            "data": "0x000000000000000000000000000000000000000000000000000000000000075e0000000000000000000000000000000000000000000000000000000000842e7f0000000000000000000000000000000000000000000000000000000063fda03a",
            "blockHash": "0xb36bd0c8904264bb53db76fa9f6d14d96a1509c2bf6606bd9a90b60fdc346570",
            "blockNumber": "0x3cc305",
            "transactionHash": "0xa790100f2e18c86f24fc1eb37b4c405adeff3c5c6664e8802df8b17ca35d3ec3",
            "transactionIndex": "0x0",
            "logIndex": "0x0",
            "transactionLogIndex": "0x0",
            "removed": False
        },
        {
            "address": "0xdd9b919f75405387507d9d87d1aa8e6027f62fa9",
            "topics": [
                "0x20a464b622e7cd0fdfd3281548ab59e5f670b3394275caf7c617b6352d2b1b94"
            ],
            "data": "0x00000000000000000000000000000000000000000000000000000000000004db00000000000000000000000000000000000000000000000000000026508389470000000000000000000000000000000000000000000000000000000063fda03a",
            "blockHash": "0xb36bd0c8904264bb53db76fa9f6d14d96a1509c2bf6606bd9a90b60fdc346570",
            "blockNumber": "0x3cc305",
            "transactionHash": "0xa790100f2e18c86f24fc1eb37b4c405adeff3c5c6664e8802df8b17ca35d3ec3",
            "transactionIndex": "0x0",
            "logIndex": "0x1",
            "transactionLogIndex": "0x1",
            "removed": False
        },
        {
            "address": "0x075af1459c7f40815396c48a699e13510faca23a",
            "topics": [
                "0x20a464b622e7cd0fdfd3281548ab59e5f670b3394275caf7c617b6352d2b1b94"
            ],
            "data": "0x00000000000000000000000000000000000000000000000000000000000004960000000000000000000000000000000000000000000000000000000722a0c8110000000000000000000000000000000000000000000000000000000063fda03a",
            "blockHash": "0xb36bd0c8904264bb53db76fa9f6d14d96a1509c2bf6606bd9a90b60fdc346570",
            "blockNumber": "0x3cc305",
            "transactionHash": "0xa790100f2e18c86f24fc1eb37b4c405adeff3c5c6664e8802df8b17ca35d3ec3",
            "transactionIndex": "0x0",
            "logIndex": "0x2",
            "transactionLogIndex": "0x2",
            "removed": False
        }
    ],
    "logsBloom": "0x00000000000000000004000000000000000000000000000000000000000000000000000000000000000000040000000000000000000000000000000000000000000000000000000000000000000000000000000200000000000000000000000100000000000000000800000000000000000000000000000000000000000000000000000000000000000000000000000000000000000000000000000800080000000000000000040004000000000000000000000000000000000000000000040000000000000000000000000000000000000000000000000000000000000000000000000001000000000000000000000000080000000000000000000000000000",
    "status": "0x1",
    "effectiveGasPrice": "0x1176592e000",
    "type": "0x0"
}

ADDITIONAL_RECEIPT = {
    "transactionHash": "0xcb541e1bb2962392511218ed95b37947b7ce9787b9dd5ef13f43c07199857e20",
    "transactionIndex": "0x0",
    "blockHash": "0xcb628f04dcadc336cbbf424be5d54294e4227d8015f3fab22c2cafa422af7328",
    "from": "0x71480ef89538d182241039e01808f639bf0416be",
    "to": "0x989568204ea3964c384b67f46dcd8b5eb67da3da",
    "blockNumber": "0x3cd151",
    "cumulativeGasUsed": "0x16bbff",
    "gasUsed": "0x16bbff",
    "contractAddress": None,
    "logs": [
        {
            "address": "0x9fd0a86bbcbeacf730c4fa7ebb9a5af2e5946443",
            "topics": [
                "0x20a464b622e7cd0fdfd3281548ab59e5f670b3394275caf7c617b6352d2b1b94"
            ],
            "data": "0x00000000000000000000000000000000000000000000000000000000000005bc00000000000000000000000000000000000000000000000000000000008274cf0000000000000000000000000000000000000000000000000000000063fdcb1e",
            "blockHash": "0xcb628f04dcadc336cbbf424be5d54294e4227d8015f3fab22c2cafa422af7328",
            "blockNumber": "0x3cd151",
            "transactionHash": "0xcb541e1bb2962392511218ed95b37947b7ce9787b9dd5ef13f43c07199857e20",
            "transactionIndex": "0x0",
            "logIndex": "0x0",
            "transactionLogIndex": "0x0",
            "removed": False
        },
        {
            "address": "0xa82f392e005c4b290d613b0804326586fb564637",
            "topics": [
                "0x20a464b622e7cd0fdfd3281548ab59e5f670b3394275caf7c617b6352d2b1b94"
            ],
            "data": "0x00000000000000000000000000000000000000000000000000000000000005ba00000000000000000000000000000000000000000000000000000000000a67ef0000000000000000000000000000000000000000000000000000000063fdcb1e",
            "blockHash": "0xcb628f04dcadc336cbbf424be5d54294e4227d8015f3fab22c2cafa422af7328",
            "blockNumber": "0x3cd151",
            "transactionHash": "0xcb541e1bb2962392511218ed95b37947b7ce9787b9dd5ef13f43c07199857e20",
            "transactionIndex": "0x0",
            "logIndex": "0x1",
            "transactionLogIndex": "0x1",
            "removed": False
        },
        {
            "address": "0xc4403f679c8da06eeae95b9129475f48ffa2aba0",
            "topics": [
                "0x20a464b622e7cd0fdfd3281548ab59e5f670b3394275caf7c617b6352d2b1b94"
            ],
            "data": "0x00000000000000000000000000000000000000000000000000000000000005ba000000000000000000000000000000000000000000000000000000000745b5410000000000000000000000000000000000000000000000000000000063fdcb1e",
            "blockHash": "0xcb628f04dcadc336cbbf424be5d54294e4227d8015f3fab22c2cafa422af7328",
            "blockNumber": "0x3cd151",
            "transactionHash": "0xcb541e1bb2962392511218ed95b37947b7ce9787b9dd5ef13f43c07199857e20",
            "transactionIndex": "0x0",
            "logIndex": "0x2",
            "transactionLogIndex": "0x2",
            "removed": False
        },
        {
            "address": "0xd54eee69f7afc55547a1a97b3c4a4b357c96ac39",
            "topics": [
                "0x20a464b622e7cd0fdfd3281548ab59e5f670b3394275caf7c617b6352d2b1b94"
            ],
            "data": "0x00000000000000000000000000000000000000000000000000000000000005ba000000000000000000000000000000000000000000000000000000070fae52120000000000000000000000000000000000000000000000000000000063fdcb1e",
            "blockHash": "0xcb628f04dcadc336cbbf424be5d54294e4227d8015f3fab22c2cafa422af7328",
            "blockNumber": "0x3cd151",
            "transactionHash": "0xcb541e1bb2962392511218ed95b37947b7ce9787b9dd5ef13f43c07199857e20",
            "transactionIndex": "0x0",
            "logIndex": "0x3",
            "transactionLogIndex": "0x3",
            "removed": False
        },
        {
            "address": "0x6f9bd1a20080ae80a16fdf2289d47e4e9fd31857",
            "topics": [
                "0x20a464b622e7cd0fdfd3281548ab59e5f670b3394275caf7c617b6352d2b1b94"
            ],
            "data": "0x00000000000000000000000000000000000000000000000000000000000005ba00000000000000000000000000000000000000000000000000000025e4bac1960000000000000000000000000000000000000000000000000000000063fdcb1e",
            "blockHash": "0xcb628f04dcadc336cbbf424be5d54294e4227d8015f3fab22c2cafa422af7328",
            "blockNumber": "0x3cd151",
            "transactionHash": "0xcb541e1bb2962392511218ed95b37947b7ce9787b9dd5ef13f43c07199857e20",
            "transactionIndex": "0x0",
            "logIndex": "0x4",
            "transactionLogIndex": "0x4",
            "removed": False
        },
        {
            "address": "0xd5e041e20567e527d99f9a29f40deee1934c52cf",
            "topics": [
                "0x20a464b622e7cd0fdfd3281548ab59e5f670b3394275caf7c617b6352d2b1b94"
            ],
            "data": "0x00000000000000000000000000000000000000000000000000000000000005ba0000000000000000000000000000000000000000000000000000000005f692cf0000000000000000000000000000000000000000000000000000000063fdcb1e",
            "blockHash": "0xcb628f04dcadc336cbbf424be5d54294e4227d8015f3fab22c2cafa422af7328",
            "blockNumber": "0x3cd151",
            "transactionHash": "0xcb541e1bb2962392511218ed95b37947b7ce9787b9dd5ef13f43c07199857e20",
            "transactionIndex": "0x0",
            "logIndex": "0x5",
            "transactionLogIndex": "0x5",
            "removed": False
        }
    ],
    "logsBloom": "0x00400000000000000000000000000000000000000000000000000000000000001000000000000000000000040100000000000000000000000000000100000000000000000000000000000000000000080000000000010000010000000400000000000000000000000000000000000000000000000000000000200000000001000000000000000000000080000000000000000000000000000000000000000000000000000001000004000000000000000000000000000000000082000000000000000000000000001000000000000000000000000000000000000000000000000080000001000000000000000000000000000000000840000000000000000000",
    "status": "0x1",
    "effectiveGasPrice": "0x1176592e000",
    "type": "0x0"
}

TEST_TRANSACTION_HASH = "0xa790100f2e18c86f24fc1eb37b4c405adeff3c5c6664e8802df8b17ca35d3ec3"
TEST_TRANSACTION_INDEX = 0
TEST_ADDITIONAL_TX_HASH = "0xcb541e1bb2962392511218ed95b37947b7ce9787b9dd5ef13f43c07199857e20"
TEST_BLOCK_HASH = "0xb36bd0c8904264bb53db76fa9f6d14d96a1509c2bf6606bd9a90b60fdc346570"
TEST_HEIGHT = 3982085
